{
  "contractName": "DevToken",
  "abi": [
    {
      "inputs": [
        {
          "internalType": "string",
          "name": "token_name",
          "type": "string"
        },
        {
          "internalType": "string",
          "name": "short_symbol",
          "type": "string"
        },
        {
          "internalType": "uint8",
          "name": "token_decimal",
          "type": "uint8"
        },
        {
          "internalType": "uint256",
          "name": "token_totalSupply",
          "type": "uint256"
        }
      ],
      "stateMutability": "nonpayable",
      "type": "constructor"
    },
    {
      "anonymous": false,
      "inputs": [
        {
          "indexed": true,
          "internalType": "address",
          "name": "owner",
          "type": "address"
        },
        {
          "indexed": true,
          "internalType": "address",
          "name": "spender",
          "type": "address"
        },
        {
          "indexed": false,
          "internalType": "uint256",
          "name": "value",
          "type": "uint256"
        }
      ],
      "name": "Approval",
      "type": "event"
    },
    {
      "anonymous": false,
      "inputs": [
        {
          "indexed": true,
          "internalType": "address",
          "name": "previousOwner",
          "type": "address"
        },
        {
          "indexed": true,
          "internalType": "address",
          "name": "newOwner",
          "type": "address"
        }
      ],
      "name": "OwnershipTransferred",
      "type": "event"
    },
    {
      "anonymous": false,
      "inputs": [
        {
          "indexed": true,
          "internalType": "address",
          "name": "from",
          "type": "address"
        },
        {
          "indexed": true,
          "internalType": "address",
          "name": "to",
          "type": "address"
        },
        {
          "indexed": false,
          "internalType": "uint256",
          "name": "value",
          "type": "uint256"
        }
      ],
      "name": "Transfer",
      "type": "event"
    },
    {
      "inputs": [],
      "name": "owner",
      "outputs": [
        {
          "internalType": "address",
          "name": "",
          "type": "address"
        }
      ],
      "stateMutability": "view",
      "type": "function"
    },
    {
      "inputs": [],
      "name": "renounceOwnership",
      "outputs": [],
      "stateMutability": "nonpayable",
      "type": "function"
    },
    {
      "inputs": [
        {
          "internalType": "address",
          "name": "newOwner",
          "type": "address"
        }
      ],
      "name": "transferOwnership",
      "outputs": [],
      "stateMutability": "nonpayable",
      "type": "function"
    },
    {
      "inputs": [],
      "name": "decimals",
      "outputs": [
        {
          "internalType": "uint8",
          "name": "",
          "type": "uint8"
        }
      ],
      "stateMutability": "view",
      "type": "function"
    },
    {
      "inputs": [],
      "name": "symbol",
      "outputs": [
        {
          "internalType": "string",
          "name": "",
          "type": "string"
        }
      ],
      "stateMutability": "view",
      "type": "function"
    },
    {
      "inputs": [],
      "name": "name",
      "outputs": [
        {
          "internalType": "string",
          "name": "",
          "type": "string"
        }
      ],
      "stateMutability": "view",
      "type": "function"
    },
    {
      "inputs": [],
      "name": "totalSupply",
      "outputs": [
        {
          "internalType": "uint256",
          "name": "",
          "type": "uint256"
        }
      ],
      "stateMutability": "view",
      "type": "function"
    },
    {
      "inputs": [
        {
          "internalType": "address",
          "name": "account",
          "type": "address"
        }
      ],
      "name": "balanceOf",
      "outputs": [
        {
          "internalType": "uint256",
          "name": "",
          "type": "uint256"
        }
      ],
      "stateMutability": "view",
      "type": "function"
    },
    {
      "inputs": [
        {
          "internalType": "address",
          "name": "account",
          "type": "address"
        },
        {
          "internalType": "uint256",
          "name": "amount",
          "type": "uint256"
        }
      ],
      "name": "mint",
      "outputs": [
        {
          "internalType": "bool",
          "name": "",
          "type": "bool"
        }
      ],
      "stateMutability": "nonpayable",
      "type": "function"
    },
    {
      "inputs": [
        {
          "internalType": "address",
          "name": "account",
          "type": "address"
        },
        {
          "internalType": "uint256",
          "name": "amount",
          "type": "uint256"
        }
      ],
      "name": "burn",
      "outputs": [
        {
          "internalType": "bool",
          "name": "",
          "type": "bool"
        }
      ],
      "stateMutability": "nonpayable",
      "type": "function"
    },
    {
      "inputs": [
        {
          "internalType": "address",
          "name": "recipient",
          "type": "address"
        },
        {
          "internalType": "uint256",
          "name": "amount",
          "type": "uint256"
        }
      ],
      "name": "transfer",
      "outputs": [
        {
          "internalType": "bool",
          "name": "",
          "type": "bool"
        }
      ],
      "stateMutability": "nonpayable",
      "type": "function"
    },
    {
      "inputs": [],
      "name": "getOwner",
      "outputs": [
        {
          "internalType": "address",
          "name": "",
          "type": "address"
        }
      ],
      "stateMutability": "view",
      "type": "function"
    },
    {
      "inputs": [
        {
          "internalType": "address",
          "name": "owner",
          "type": "address"
        },
        {
          "internalType": "address",
          "name": "spender",
          "type": "address"
        }
      ],
      "name": "allowance",
      "outputs": [
        {
          "internalType": "uint256",
          "name": "",
          "type": "uint256"
        }
      ],
      "stateMutability": "view",
      "type": "function"
    },
    {
      "inputs": [
        {
          "internalType": "address",
          "name": "spender",
          "type": "address"
        },
        {
          "internalType": "uint256",
          "name": "amount",
          "type": "uint256"
        }
      ],
      "name": "approve",
      "outputs": [
        {
          "internalType": "bool",
          "name": "",
          "type": "bool"
        }
      ],
      "stateMutability": "nonpayable",
      "type": "function"
    },
    {
      "inputs": [
        {
          "internalType": "address",
          "name": "spender",
          "type": "address"
        },
        {
          "internalType": "address",
          "name": "recipient",
          "type": "address"
        },
        {
          "internalType": "uint256",
          "name": "amount",
          "type": "uint256"
        }
      ],
      "name": "transferFrom",
      "outputs": [
        {
          "internalType": "bool",
          "name": "",
          "type": "bool"
        }
      ],
      "stateMutability": "nonpayable",
      "type": "function"
    },
    {
      "inputs": [
        {
          "internalType": "address",
          "name": "spender",
          "type": "address"
        },
        {
          "internalType": "uint256",
          "name": "amount",
          "type": "uint256"
        }
      ],
      "name": "increaseAllowance",
      "outputs": [
        {
          "internalType": "bool",
          "name": "",
          "type": "bool"
        }
      ],
      "stateMutability": "nonpayable",
      "type": "function"
    },
    {
      "inputs": [
        {
          "internalType": "address",
          "name": "spender",
          "type": "address"
        },
        {
          "internalType": "uint256",
          "name": "amount",
          "type": "uint256"
        }
      ],
      "name": "decreaseAllowance",
      "outputs": [
        {
          "internalType": "bool",
          "name": "",
          "type": "bool"
        }
      ],
      "stateMutability": "nonpayable",
      "type": "function"
    }
  ],
  "bytecode": "0x60806040523480156200001157600080fd5b50604051620025e7380380620025e7833981810160405281019062000037919062000350565b336000806101000a81548173ffffffffffffffffffffffffffffffffffffffff021916908373ffffffffffffffffffffffffffffffffffffffff16021790555060008054906101000a900473ffffffffffffffffffffffffffffffffffffffff1673ffffffffffffffffffffffffffffffffffffffff16600073ffffffffffffffffffffffffffffffffffffffff167f8be0079c531659141344cd1fd0a4f28419497f9722a3daafe3b4186f6b6457e060405160405180910390a383600490805190602001906200010a92919062000200565b5082600390805190602001906200012392919062000200565b5081600260006101000a81548160ff021916908360ff16021790555080600181905550600154600560003373ffffffffffffffffffffffffffffffffffffffff1673ffffffffffffffffffffffffffffffffffffffff168152602001908152602001600020819055503373ffffffffffffffffffffffffffffffffffffffff16600073ffffffffffffffffffffffffffffffffffffffff167fddf252ad1be2c89b69c2b068fc378daa952ba7f163c4a11628f55a4df523b3ef600154604051620001ee9190620003ff565b60405180910390a350505050620005d7565b8280546200020e90620004c8565b90600052602060002090601f0160209004810192826200023257600085556200027e565b82601f106200024d57805160ff19168380011785556200027e565b828001600101855582156200027e579182015b828111156200027d57825182559160200191906001019062000260565b5b5090506200028d919062000291565b5090565b5b80821115620002ac57600081600090555060010162000292565b5090565b6000620002c7620002c18462000445565b6200041c565b905082815260208101848484011115620002e057600080fd5b620002ed84828562000492565b509392505050565b600082601f8301126200030757600080fd5b815162000319848260208601620002b0565b91505092915050565b6000815190506200033381620005a3565b92915050565b6000815190506200034a81620005bd565b92915050565b600080600080608085870312156200036757600080fd5b600085015167ffffffffffffffff8111156200038257600080fd5b6200039087828801620002f5565b945050602085015167ffffffffffffffff811115620003ae57600080fd5b620003bc87828801620002f5565b9350506040620003cf8782880162000339565b9250506060620003e28782880162000322565b91505092959194509250565b620003f9816200047b565b82525050565b6000602082019050620004166000830184620003ee565b92915050565b6000620004286200043b565b9050620004368282620004fe565b919050565b6000604051905090565b600067ffffffffffffffff82111562000463576200046262000563565b5b6200046e8262000592565b9050602081019050919050565b6000819050919050565b600060ff82169050919050565b60005b83811015620004b257808201518184015260208101905062000495565b83811115620004c2576000848401525b50505050565b60006002820490506001821680620004e157607f821691505b60208210811415620004f857620004f762000534565b5b50919050565b620005098262000592565b810181811067ffffffffffffffff821117156200052b576200052a62000563565b5b80604052505050565b7f4e487b7100000000000000000000000000000000000000000000000000000000600052602260045260246000fd5b7f4e487b7100000000000000000000000000000000000000000000000000000000600052604160045260246000fd5b6000601f19601f8301169050919050565b620005ae816200047b565b8114620005ba57600080fd5b50565b620005c88162000485565b8114620005d457600080fd5b50565b61200080620005e76000396000f3fe608060405234801561001057600080fd5b506004361061010b5760003560e01c8063715018a6116100a25780639dc29fac116100715780639dc29fac146102be578063a457c2d7146102ee578063a9059cbb1461031e578063dd62ed3e1461034e578063f2fde38b1461037e5761010b565b8063715018a61461025a578063893d20e8146102645780638da5cb5b1461028257806395d89b41146102a05761010b565b8063313ce567116100de578063313ce567146101ac57806339509351146101ca57806340c10f19146101fa57806370a082311461022a5761010b565b806306fdde0314610110578063095ea7b31461012e57806318160ddd1461015e57806323b872dd1461017c575b600080fd5b61011861039a565b60405161012591906118b0565b60405180910390f35b61014860048036038101906101439190611648565b61042c565b6040516101559190611895565b60405180910390f35b610166610443565b6040516101739190611a32565b60405180910390f35b610196600480360381019061019191906115f9565b61044d565b6040516101a39190611895565b60405180910390f35b6101b46105b6565b6040516101c19190611a4d565b60405180910390f35b6101e460048036038101906101df9190611648565b6105cd565b6040516101f19190611895565b60405180910390f35b610214600480360381019061020f9190611648565b61066b565b6040516102219190611895565b60405180910390f35b610244600480360381019061023f9190611594565b61070f565b6040516102519190611a32565b60405180910390f35b610262610758565b005b61026c6108a4565b604051610279919061187a565b60405180910390f35b61028a6108b3565b604051610297919061187a565b60405180910390f35b6102a86108dc565b6040516102b591906118b0565b60405180910390f35b6102d860048036038101906102d39190611648565b61096e565b6040516102e59190611895565b60405180910390f35b61030860048036038101906103039190611648565b610a12565b6040516103159190611895565b60405180910390f35b61033860048036038101906103339190611648565b610ab0565b6040516103459190611895565b60405180910390f35b610368600480360381019061036391906115bd565b610ac7565b6040516103759190611a32565b60405180910390f35b61039860048036038101906103939190611594565b610b4e565b005b6060600480546103a990611b96565b80601f01602080910402602001604051908101604052809291908181526020018280546103d590611b96565b80156104225780601f106103f757610100808354040283529160200191610422565b820191906000526020600020905b81548152906001019060200180831161040557829003601f168201915b5050505050905090565b6000610439338484610be8565b6001905092915050565b6000600154905090565b600081600660008673ffffffffffffffffffffffffffffffffffffffff1673ffffffffffffffffffffffffffffffffffffffff16815260200190815260200160002060003373ffffffffffffffffffffffffffffffffffffffff1673ffffffffffffffffffffffffffffffffffffffff16815260200190815260200160002054101561050e576040517f08c379a000000000000000000000000000000000000000000000000000000000815260040161050590611932565b60405180910390fd5b610519848484610db3565b6105ab843384600660008973ffffffffffffffffffffffffffffffffffffffff1673ffffffffffffffffffffffffffffffffffffffff16815260200190815260200160002060003373ffffffffffffffffffffffffffffffffffffffff1673ffffffffffffffffffffffffffffffffffffffff168152602001908152602001600020546105a69190611ada565b610be8565b600190509392505050565b6000600260009054906101000a900460ff16905090565b6000610661338484600660003373ffffffffffffffffffffffffffffffffffffffff1673ffffffffffffffffffffffffffffffffffffffff16815260200190815260200160002060008873ffffffffffffffffffffffffffffffffffffffff1673ffffffffffffffffffffffffffffffffffffffff1681526020019081526020016000205461065c9190611a84565b610be8565b6001905092915050565b60003373ffffffffffffffffffffffffffffffffffffffff1660008054906101000a900473ffffffffffffffffffffffffffffffffffffffff1673ffffffffffffffffffffffffffffffffffffffff16146106fb576040517f08c379a00000000000000000000000000000000000000000000000000000000081526004016106f2906118d2565b60405180910390fd5b610705838361102b565b6001905092915050565b6000600560008373ffffffffffffffffffffffffffffffffffffffff1673ffffffffffffffffffffffffffffffffffffffff168152602001908152602001600020549050919050565b3373ffffffffffffffffffffffffffffffffffffffff1660008054906101000a900473ffffffffffffffffffffffffffffffffffffffff1673ffffffffffffffffffffffffffffffffffffffff16146107e6576040517f08c379a00000000000000000000000000000000000000000000000000000000081526004016107dd906118d2565b60405180910390fd5b600073ffffffffffffffffffffffffffffffffffffffff1660008054906101000a900473ffffffffffffffffffffffffffffffffffffffff1673ffffffffffffffffffffffffffffffffffffffff167f8be0079c531659141344cd1fd0a4f28419497f9722a3daafe3b4186f6b6457e060405160405180910390a360008060006101000a81548173ffffffffffffffffffffffffffffffffffffffff021916908373ffffffffffffffffffffffffffffffffffffffff160217905550565b60006108ae6108b3565b905090565b60008060009054906101000a900473ffffffffffffffffffffffffffffffffffffffff16905090565b6060600380546108eb90611b96565b80601f016020809104026020016040519081016040528092919081815260200182805461091790611b96565b80156109645780601f1061093957610100808354040283529160200191610964565b820191906000526020600020905b81548152906001019060200180831161094757829003601f168201915b5050505050905090565b60003373ffffffffffffffffffffffffffffffffffffffff1660008054906101000a900473ffffffffffffffffffffffffffffffffffffffff1673ffffffffffffffffffffffffffffffffffffffff16146109fe576040517f08c379a00000000000000000000000000000000000000000000000000000000081526004016109f5906118d2565b60405180910390fd5b610a0883836111ac565b6001905092915050565b6000610aa6338484600660003373ffffffffffffffffffffffffffffffffffffffff1673ffffffffffffffffffffffffffffffffffffffff16815260200190815260200160002060008873ffffffffffffffffffffffffffffffffffffffff1673ffffffffffffffffffffffffffffffffffffffff16815260200190815260200160002054610aa19190611ada565b610be8565b6001905092915050565b6000610abd338484610db3565b6001905092915050565b6000600660008473ffffffffffffffffffffffffffffffffffffffff1673ffffffffffffffffffffffffffffffffffffffff16815260200190815260200160002060008373ffffffffffffffffffffffffffffffffffffffff1673ffffffffffffffffffffffffffffffffffffffff16815260200190815260200160002054905092915050565b3373ffffffffffffffffffffffffffffffffffffffff1660008054906101000a900473ffffffffffffffffffffffffffffffffffffffff1673ffffffffffffffffffffffffffffffffffffffff1614610bdc576040517f08c379a0000000000000000000000000000000000000000000000000000000008152600401610bd3906118d2565b60405180910390fd5b610be5816113af565b50565b600073ffffffffffffffffffffffffffffffffffffffff168373ffffffffffffffffffffffffffffffffffffffff161415610c58576040517f08c379a0000000000000000000000000000000000000000000000000000000008152600401610c4f90611972565b60405180910390fd5b600073ffffffffffffffffffffffffffffffffffffffff168273ffffffffffffffffffffffffffffffffffffffff161415610cc8576040517f08c379a0000000000000000000000000000000000000000000000000000000008152600401610cbf906118f2565b60405180910390fd5b80600660008573ffffffffffffffffffffffffffffffffffffffff1673ffffffffffffffffffffffffffffffffffffffff16815260200190815260200160002060008473ffffffffffffffffffffffffffffffffffffffff1673ffffffffffffffffffffffffffffffffffffffff168152602001908152602001600020819055508173ffffffffffffffffffffffffffffffffffffffff168373ffffffffffffffffffffffffffffffffffffffff167f8c5be1e5ebec7d5bd14f71427d1e84f3dd0314c0f7b2291e5b200ac8c7c3b92583604051610da69190611a32565b60405180910390a3505050565b600073ffffffffffffffffffffffffffffffffffffffff168373ffffffffffffffffffffffffffffffffffffffff161415610e23576040517f08c379a0000000000000000000000000000000000000000000000000000000008152600401610e1a906119b2565b60405180910390fd5b600073ffffffffffffffffffffffffffffffffffffffff168273ffffffffffffffffffffffffffffffffffffffff161415610e93576040517f08c379a0000000000000000000000000000000000000000000000000000000008152600401610e8a90611952565b60405180910390fd5b80600560008573ffffffffffffffffffffffffffffffffffffffff1673ffffffffffffffffffffffffffffffffffffffff168152602001908152602001600020541015610f15576040517f08c379a0000000000000000000000000000000000000000000000000000000008152600401610f0c906119f2565b60405180910390fd5b80600560008573ffffffffffffffffffffffffffffffffffffffff1673ffffffffffffffffffffffffffffffffffffffff1681526020019081526020016000206000828254610f649190611ada565b9250508190555080600560008473ffffffffffffffffffffffffffffffffffffffff1673ffffffffffffffffffffffffffffffffffffffff1681526020019081526020016000206000828254610fba9190611a84565b925050819055508173ffffffffffffffffffffffffffffffffffffffff168373ffffffffffffffffffffffffffffffffffffffff167fddf252ad1be2c89b69c2b068fc378daa952ba7f163c4a11628f55a4df523b3ef8360405161101e9190611a32565b60405180910390a3505050565b600073ffffffffffffffffffffffffffffffffffffffff168273ffffffffffffffffffffffffffffffffffffffff16141561109b576040517f08c379a000000000000000000000000000000000000000000000000000000000815260040161109290611a12565b60405180910390fd5b80600160008282546110ad9190611a84565b9250508190555080600560008473ffffffffffffffffffffffffffffffffffffffff1673ffffffffffffffffffffffffffffffffffffffff168152602001908152602001600020546110ff9190611a84565b600560008473ffffffffffffffffffffffffffffffffffffffff1673ffffffffffffffffffffffffffffffffffffffff168152602001908152602001600020819055508173ffffffffffffffffffffffffffffffffffffffff16600073ffffffffffffffffffffffffffffffffffffffff167fddf252ad1be2c89b69c2b068fc378daa952ba7f163c4a11628f55a4df523b3ef836040516111a09190611a32565b60405180910390a35050565b600073ffffffffffffffffffffffffffffffffffffffff168273ffffffffffffffffffffffffffffffffffffffff16141561121c576040517f08c379a0000000000000000000000000000000000000000000000000000000008152600401611213906119d2565b60405180910390fd5b80600560008473ffffffffffffffffffffffffffffffffffffffff1673ffffffffffffffffffffffffffffffffffffffff16815260200190815260200160002054101561129e576040517f08c379a000000000000000000000000000000000000000000000000000000000815260040161129590611992565b60405180910390fd5b80600560008473ffffffffffffffffffffffffffffffffffffffff1673ffffffffffffffffffffffffffffffffffffffff168152602001908152602001600020546112e99190611ada565b600560008473ffffffffffffffffffffffffffffffffffffffff1673ffffffffffffffffffffffffffffffffffffffff16815260200190815260200160002081905550806001600082825461133e9190611ada565b92505081905550600073ffffffffffffffffffffffffffffffffffffffff168273ffffffffffffffffffffffffffffffffffffffff167fddf252ad1be2c89b69c2b068fc378daa952ba7f163c4a11628f55a4df523b3ef836040516113a39190611a32565b60405180910390a35050565b3373ffffffffffffffffffffffffffffffffffffffff1660008054906101000a900473ffffffffffffffffffffffffffffffffffffffff1673ffffffffffffffffffffffffffffffffffffffff161461143d576040517f08c379a0000000000000000000000000000000000000000000000000000000008152600401611434906118d2565b60405180910390fd5b600073ffffffffffffffffffffffffffffffffffffffff168173ffffffffffffffffffffffffffffffffffffffff1614156114ad576040517f08c379a00000000000000000000000000000000000000000000000000000000081526004016114a490611912565b60405180910390fd5b8073ffffffffffffffffffffffffffffffffffffffff1660008054906101000a900473ffffffffffffffffffffffffffffffffffffffff1673ffffffffffffffffffffffffffffffffffffffff167f8be0079c531659141344cd1fd0a4f28419497f9722a3daafe3b4186f6b6457e060405160405180910390a3806000806101000a81548173ffffffffffffffffffffffffffffffffffffffff021916908373ffffffffffffffffffffffffffffffffffffffff16021790555050565b60008135905061157981611f9c565b92915050565b60008135905061158e81611fb3565b92915050565b6000602082840312156115a657600080fd5b60006115b48482850161156a565b91505092915050565b600080604083850312156115d057600080fd5b60006115de8582860161156a565b92505060206115ef8582860161156a565b9150509250929050565b60008060006060848603121561160e57600080fd5b600061161c8682870161156a565b935050602061162d8682870161156a565b925050604061163e8682870161157f565b9150509250925092565b6000806040838503121561165b57600080fd5b60006116698582860161156a565b925050602061167a8582860161157f565b9150509250929050565b61168d81611b0e565b82525050565b61169c81611b20565b82525050565b60006116ad82611a68565b6116b78185611a73565b93506116c7818560208601611b63565b6116d081611c26565b840191505092915050565b60006116e8602b83611a73565b91506116f382611c37565b604082019050919050565b600061170b602c83611a73565b915061171682611c86565b604082019050919050565b600061172e602b83611a73565b915061173982611cd5565b604082019050919050565b6000611751603583611a73565b915061175c82611d24565b604082019050919050565b6000611774602383611a73565b915061177f82611d73565b604082019050919050565b6000611797603383611a73565b91506117a282611dc2565b604082019050919050565b60006117ba603183611a73565b91506117c582611e11565b604082019050919050565b60006117dd602583611a73565b91506117e882611e60565b604082019050919050565b6000611800602883611a73565b915061180b82611eaf565b604082019050919050565b6000611823603583611a73565b915061182e82611efe565b604082019050919050565b6000611846602683611a73565b915061185182611f4d565b604082019050919050565b61186581611b4c565b82525050565b61187481611b56565b82525050565b600060208201905061188f6000830184611684565b92915050565b60006020820190506118aa6000830184611693565b92915050565b600060208201905081810360008301526118ca81846116a2565b905092915050565b600060208201905081810360008301526118eb816116db565b9050919050565b6000602082019050818103600083015261190b816116fe565b9050919050565b6000602082019050818103600083015261192b81611721565b9050919050565b6000602082019050818103600083015261194b81611744565b9050919050565b6000602082019050818103600083015261196b81611767565b9050919050565b6000602082019050818103600083015261198b8161178a565b9050919050565b600060208201905081810360008301526119ab816117ad565b9050919050565b600060208201905081810360008301526119cb816117d0565b9050919050565b600060208201905081810360008301526119eb816117f3565b9050919050565b60006020820190508181036000830152611a0b81611816565b9050919050565b60006020820190508181036000830152611a2b81611839565b9050919050565b6000602082019050611a47600083018461185c565b92915050565b6000602082019050611a62600083018461186b565b92915050565b600081519050919050565b600082825260208201905092915050565b6000611a8f82611b4c565b9150611a9a83611b4c565b9250827fffffffffffffffffffffffffffffffffffffffffffffffffffffffffffffffff03821115611acf57611ace611bc8565b5b828201905092915050565b6000611ae582611b4c565b9150611af083611b4c565b925082821015611b0357611b02611bc8565b5b828203905092915050565b6000611b1982611b2c565b9050919050565b60008115159050919050565b600073ffffffffffffffffffffffffffffffffffffffff82169050919050565b6000819050919050565b600060ff82169050919050565b60005b83811015611b81578082015181840152602081019050611b66565b83811115611b90576000848401525b50505050565b60006002820490506001821680611bae57607f821691505b60208210811415611bc257611bc1611bf7565b5b50919050565b7f4e487b7100000000000000000000000000000000000000000000000000000000600052601160045260246000fd5b7f4e487b7100000000000000000000000000000000000000000000000000000000600052602260045260246000fd5b6000601f19601f8301169050919050565b7f4f776e61626c653a206f6e6c79206f6e7765722063616e2063616c6c2074686960008201527f732066756e6374696f6e2e000000000000000000000000000000000000000000602082015250565b7f446576546f6b656e3a20617070726f76652063616e6e6f7420626520746f207a60008201527f65726f20616464726573732e0000000000000000000000000000000000000000602082015250565b7f4f776e61626c653a206e6577206f6e65722063616e277420626520746865207260008201527f657a6f2061646472657373000000000000000000000000000000000000000000602082015250565b7f446576546f6b656e3a20596f752063616e6e6f74207370656e6420746861742060008201527f6d756368206f6e2074686973206163636f756e742e0000000000000000000000602082015250565b7f446576546f6b656e3a207472616e7366657220746f207a65726f20616464726560008201527f73732e0000000000000000000000000000000000000000000000000000000000602082015250565b7f446576546f6b656e3a20617070726f76652063616e6e6f7420626520646f6e6560008201527f2066726f6d207a65726f20616464726573732e00000000000000000000000000602082015250565b7f446576546f6b656e3a2043616e6e6f74206275726e206d6f7265207468616e2060008201527f746865206163636f756e74206f776e732e000000000000000000000000000000602082015250565b7f446576546f6b656e3a207472616e736665722066726f6d207a65726f2061646460008201527f726573732e000000000000000000000000000000000000000000000000000000602082015250565b7f446576546f6b656e3a2063616e6e6f74206275726e2066726f6d207a65726f2060008201527f616464726573732e000000000000000000000000000000000000000000000000602082015250565b7f446576546f6b656e3a2063616e74207472616e73666572206d6f72652074686160008201527f6e20796f7572206163636f756e7420686f6c64732e0000000000000000000000602082015250565b7f446576546f6b656e3a2063616e6e6f74206d696e7420746f207a65726f20616460008201527f64726573732e0000000000000000000000000000000000000000000000000000602082015250565b611fa581611b0e565b8114611fb057600080fd5b50565b611fbc81611b4c565b8114611fc757600080fd5b5056fea26469706673582212201ec2aa259625f33f532280e489a1015c342315f2ad470d7118e081fcdd2065ac64736f6c63430008040033",
  "immutableReferences": {},
  "source": "// SPDX-License-Identifier: MIT\npragma solidity ^0.8.4;\n\nimport \"./Ownable.sol\";\n\ncontract DevToken is Ownable {\n    event Transfer(address indexed from, address indexed to, uint256 value);\n    event Approval(\n        address indexed owner,\n        address indexed spender,\n        uint256 value\n    );\n\n    uint256 private _totalSupply;\n    uint8 private _decimals;\n    string private _symbol;\n    string private _name;\n\n    mapping(address => uint256) private _balances;\n    mapping(address => mapping(address => uint256)) private _allowances;\n\n    constructor(\n        string memory token_name,\n        string memory short_symbol,\n        uint8 token_decimal,\n        uint256 token_totalSupply\n    ) {\n        _name = token_name;\n        _symbol = short_symbol;\n        _decimals = token_decimal;\n        _totalSupply = token_totalSupply;\n\n        // Add all tokens created to the creator of the token\n        _balances[msg.sender] = _totalSupply;\n\n        emit Transfer(address(0), msg.sender, _totalSupply);\n    }\n\n    function decimals() external view returns (uint8) {\n        return _decimals;\n    }\n\n    function symbol() external view returns (string memory) {\n        return _symbol;\n    }\n\n    function name() external view returns (string memory) {\n        return _name;\n    }\n\n    function totalSupply() external view returns (uint256) {\n        return _totalSupply;\n    }\n\n    function balanceOf(address account) external view returns (uint256) {\n        return _balances[account];\n    }\n\n    function mint(address account, uint256 amount)\n        public\n        onlyOwner\n        returns (bool)\n    {\n        _mint(account, amount);\n        return true;\n    }\n\n    function _mint(address account, uint256 amount) internal {\n        require(\n            account != address(0),\n            \"DevToken: cannot mint to zero address.\"\n        );\n\n        // Increase total supply\n        _totalSupply += amount;\n\n        // Add the ammount to the account balance using the balance mapping\n        _balances[account] = _balances[account] + amount;\n\n        // Emit event to log the action\n        emit Transfer(address(0), account, amount);\n    }\n\n    function burn(address account, uint256 amount)\n        public\n        onlyOwner\n        returns (bool)\n    {\n        _burn(account, amount);\n        return true;\n    }\n\n    function _burn(address account, uint256 amount) internal {\n        require(\n            account != address(0),\n            \"DevToken: cannot burn from zero address.\"\n        );\n        require(\n            _balances[account] >= amount,\n            \"DevToken: Cannot burn more than the account owns.\"\n        );\n\n        // Remove the amount from the account balance\n        _balances[account] = _balances[account] - amount;\n\n        // Decrease totalSupply\n        _totalSupply -= amount;\n\n        // Emit event, uzero zero address as receiver\n        emit Transfer(account, address(0), amount);\n    }\n\n    function transfer(address recipient, uint256 amount)\n        external\n        returns (bool)\n    {\n        _transfer(msg.sender, recipient, amount);\n        return true;\n    }\n\n    function _transfer(\n        address sender,\n        address recipient,\n        uint256 amount\n    ) internal {\n        require(sender != address(0), \"DevToken: transfer from zero address.\");\n        require(recipient != address(0), \"DevToken: transfer to zero address.\");\n        require(\n            _balances[sender] >= amount,\n            \"DevToken: cant transfer more than your account holds.\"\n        );\n\n        _balances[sender] -= amount;\n        _balances[recipient] += amount;\n\n        emit Transfer(sender, recipient, amount);\n    }\n\n    function getOwner() external view returns (address) {\n        return owner();\n    }\n\n    function allowance(address owner, address spender)\n        external\n        view\n        returns (uint256)\n    {\n        return _allowances[owner][spender];\n    }\n\n    function approve(address spender, uint256 amount) external returns (bool) {\n        _approve(msg.sender, spender, amount);\n        return true;\n    }\n\n    function _approve(\n        address owner,\n        address spender,\n        uint256 amount\n    ) internal {\n        require(\n            owner != address(0),\n            \"DevToken: approve cannot be done from zero address.\"\n        );\n        require(\n            spender != address(0),\n            \"DevToken: approve cannot be to zero address.\"\n        );\n\n        // Set the allowance of the spender address at the Owner mapping over accounts to the amount\n        _allowances[owner][spender] = amount;\n\n        emit Approval(owner, spender, amount);\n    }\n\n    function transferFrom(\n        address spender,\n        address recipient,\n        uint256 amount\n    ) external returns (bool) {\n        require(\n            _allowances[spender][msg.sender] >= amount,\n            \"DevToken: You cannot spend that much on this account.\"\n        );\n\n        // Transfer first\n        _transfer(spender, recipient, amount);\n\n        // Reduce current allowance so a user cannot respend\n        _approve(\n            spender,\n            msg.sender,\n            _allowances[spender][msg.sender] - amount\n        );\n        return true;\n    }\n\n    function increaseAllowance(address spender, uint256 amount)\n        public\n        returns (bool)\n    {\n        _approve(\n            msg.sender,\n            spender,\n            _allowances[msg.sender][spender] + amount\n        );\n        return true;\n    }\n\n    function decreaseAllowance(address spender, uint256 amount)\n        public\n        returns (bool)\n    {\n        _approve(\n            msg.sender,\n            spender,\n            _allowances[msg.sender][spender] - amount\n        );\n        return true;\n    }\n}\n",
  "sourcePath": "/Users/mayckonbarbosadasilva/Desktop/desktop/mayckon/solidity/BEP20-app/contracts/DevToken.sol",
  "compiler": {
    "name": "solc",
    "version": "0.8.4+commit.c7e474f2.Emscripten.clang"
  },
  "schemaVersion": "3.4.4",
  "updatedAt": "2022-03-02T21:29:48.071Z",
  "devdoc": {
    "kind": "dev",
    "methods": {},
    "version": 1
  },
  "userdoc": {
    "kind": "user",
    "methods": {},
    "version": 1
  }
}