{
  "contractName": "Stakable",
  "abi": [
    {
      "inputs": [],
      "stateMutability": "nonpayable",
      "type": "constructor"
    },
    {
      "anonymous": false,
      "inputs": [
        {
          "indexed": true,
          "internalType": "address",
          "name": "user",
          "type": "address"
        },
        {
          "indexed": false,
          "internalType": "uint256",
          "name": "amount",
          "type": "uint256"
        },
        {
          "indexed": false,
          "internalType": "uint256",
          "name": "index",
          "type": "uint256"
        },
        {
          "indexed": false,
          "internalType": "uint256",
          "name": "timestamp",
          "type": "uint256"
        }
      ],
      "name": "Staked",
      "type": "event"
    },
    {
      "inputs": [
        {
          "internalType": "address",
          "name": "_staker",
          "type": "address"
        }
      ],
      "name": "hasStake",
      "outputs": [
        {
          "components": [
            {
              "internalType": "uint256",
              "name": "total_amount",
              "type": "uint256"
            },
            {
              "components": [
                {
                  "internalType": "address",
                  "name": "user",
                  "type": "address"
                },
                {
                  "internalType": "uint256",
                  "name": "amount",
                  "type": "uint256"
                },
                {
                  "internalType": "uint256",
                  "name": "since",
                  "type": "uint256"
                },
                {
                  "internalType": "uint256",
                  "name": "claimable",
                  "type": "uint256"
                }
              ],
              "internalType": "struct Stakable.Stake[]",
              "name": "stakes",
              "type": "tuple[]"
            }
          ],
          "internalType": "struct Stakable.StakingSummary",
          "name": "",
          "type": "tuple"
        }
      ],
      "stateMutability": "view",
      "type": "function"
    }
  ],
  "bytecode": "0x60806040526103e860025534801561001657600080fd5b5060006001816001815401808255809150500390600052602060002090505061071c806100446000396000f3fe608060405234801561001057600080fd5b506004361061002b5760003560e01c8063e73e14bf14610030575b600080fd5b61004a60048036038101906100459190610376565b610060565b60405161005791906104c5565b60405180910390f35b610068610347565b6000806040518060400160405280600081526020016000600160008873ffffffffffffffffffffffffffffffffffffffff1673ffffffffffffffffffffffffffffffffffffffff16815260200190815260200160002054815481106100f6577f4e487b7100000000000000000000000000000000000000000000000000000000600052603260045260246000fd5b9060005260206000209060020201600101805480602002602001604051908101604052809291908181526020016000905b828210156101cd57838290600052602060002090600402016040518060800160405290816000820160009054906101000a900473ffffffffffffffffffffffffffffffffffffffff1673ffffffffffffffffffffffffffffffffffffffff1673ffffffffffffffffffffffffffffffffffffffff168152602001600182015481526020016002820154815260200160038201548152505081526020019060010190610127565b50505050815250905060005b8160200151518110156102f057600061023583602001518381518110610228577f4e487b7100000000000000000000000000000000000000000000000000000000600052603260045260246000fd5b6020026020010151610305565b90508083602001518381518110610275577f4e487b7100000000000000000000000000000000000000000000000000000000600052603260045260246000fd5b60200260200101516060018181525050826020015182815181106102c2577f4e487b7100000000000000000000000000000000000000000000000000000000600052603260045260246000fd5b602002602001015160200151846102d99190610520565b9350506001816102e99190610520565b90506101d9565b50818160000181815250508092505050919050565b60006002548260200151610e108460400151426103229190610601565b61032c9190610576565b61033691906105a7565b6103409190610576565b9050919050565b604051806040016040528060008152602001606081525090565b600081359050610370816106cf565b92915050565b60006020828403121561038857600080fd5b600061039684828501610361565b91505092915050565b60006103ab8383610424565b60808301905092915050565b6103c081610635565b82525050565b60006103d1826104f7565b6103db818561050f565b93506103e6836104e7565b8060005b838110156104175781516103fe888261039f565b975061040983610502565b9250506001810190506103ea565b5085935050505092915050565b60808201600082015161043a60008501826103b7565b50602082015161044d60208501826104b6565b50604082015161046060408501826104b6565b50606082015161047360608501826104b6565b50505050565b600060408301600083015161049160008601826104b6565b50602083015184820360208601526104a982826103c6565b9150508091505092915050565b6104bf81610667565b82525050565b600060208201905081810360008301526104df8184610479565b905092915050565b6000819050602082019050919050565b600081519050919050565b6000602082019050919050565b600082825260208201905092915050565b600061052b82610667565b915061053683610667565b9250827fffffffffffffffffffffffffffffffffffffffffffffffffffffffffffffffff0382111561056b5761056a610671565b5b828201905092915050565b600061058182610667565b915061058c83610667565b92508261059c5761059b6106a0565b5b828204905092915050565b60006105b282610667565b91506105bd83610667565b9250817fffffffffffffffffffffffffffffffffffffffffffffffffffffffffffffffff04831182151516156105f6576105f5610671565b5b828202905092915050565b600061060c82610667565b915061061783610667565b92508282101561062a57610629610671565b5b828203905092915050565b600061064082610647565b9050919050565b600073ffffffffffffffffffffffffffffffffffffffff82169050919050565b6000819050919050565b7f4e487b7100000000000000000000000000000000000000000000000000000000600052601160045260246000fd5b7f4e487b7100000000000000000000000000000000000000000000000000000000600052601260045260246000fd5b6106d881610635565b81146106e357600080fd5b5056fea2646970667358221220e204a8df3a10d6bbfee3afc4e4406ec54dc0d9c9a90c63f6ee1d774200d8978564736f6c63430008040033",
  "immutableReferences": {},
  "source": "// SPDX-License-Identifier: MIT\npragma solidity ^0.8.4;\n\ncontract Stakable {\n    /**\n     * @notice Staked event is triggered whenever a user stakes tokens, address is indexed to make it filterable\n     */\n    event Staked(\n        address indexed user,\n        uint256 amount,\n        uint256 index,\n        uint256 timestamp\n    );\n\n    /**\n     * @notice\n     * A stake struct is used to represent the way we store stakes,\n     * A Stake will contain the users address, the amount staked and a timestamp,\n     * Since which is when the stake was made\n     */\n    struct Stake {\n        address user;\n        uint256 amount;\n        uint256 since;\n        // This claimable field is new and used to tell how big of a reward is currently available\n        uint256 claimable;\n    }\n\n    /**\n     * @notice\n     * StakingSummary is a struct that is used to contain all stakes performed by a certain account\n     */\n    struct StakingSummary {\n        uint256 total_amount;\n        Stake[] stakes;\n    }\n\n    /**\n     * @notice Stakeholder is a staker that has active stakes\n     */\n    struct Stakeholder {\n        address user;\n        Stake[] address_stakes;\n    }\n\n    /**\n     * @notice\n     *   This is a array where we store all Stakes that are performed on the Contract\n     *   The stakes for each address are stored at a certain index, the index can be found using the stakes mapping\n     */\n    Stakeholder[] internal stakeholders;\n\n    /**\n     * @notice\n     * stakes is used to keep track of the INDEX for the stakers in the stakes array\n     */\n    mapping(address => uint256) internal stakes;\n\n    constructor() {\n        // This push is needed so we avoid index 0 causing bug of index-1\n        stakeholders.push();\n    }\n\n    /**\n     * @notice\n      rewardPerHour is 1000 because it is used to represent 0.001, since we only use integer numbers\n      This will give users 0.1% reward for each staked token / H\n     */\n    uint256 internal rewardPerHour = 1000;\n\n    /**\n     * @notice _addStakeholder takes care of adding a stakeholder to the stakeholders array\n     */\n    function _addStakeholder(address staker) internal returns (uint256) {\n        // Push a empty item to the array to make space for our new stakeholder\n        stakeholders.push();\n\n        // Calculate the index of the last item in the array by len-1\n        uint256 userIndex = stakeholders.length - 1;\n\n        // Assign the address to the new index\n        stakeholders[userIndex].user = staker;\n\n        // Add index to the stakeholders\n        stakes[staker] = userIndex;\n\n        return userIndex;\n    }\n\n    /**\n     * @notice\n     * _Stake is used to make a stake for an sender. It will remove the amount staked from the stakers account and place those tokens inside a stake container\n     * StakeID\n     */\n    function _stake(uint256 _amount) internal {\n        require(_amount > 0, \"Cannot stake nothing\");\n\n        uint256 index = stakes[msg.sender];\n        uint256 timestamp = block.timestamp;\n\n        // See if the staker is staking for the first time\n        if (index == 0) {\n            // Staking for the first time\n            // We need to add him to the stakeHolders and also map it into the index of the stakes\n            // The index returned will be the index of the stakeholder in the stakeholders array\n            index = _addStakeholder(msg.sender);\n        }\n\n        // Use the index to push a new Stake\n        // push a newly created Stake with the current block timestamp.\n        stakeholders[index].address_stakes.push(\n            Stake(msg.sender, _amount, timestamp, 0)\n        );\n\n        // Emit an event that the stake has occurred\n        emit Staked(msg.sender, _amount, index, timestamp);\n    }\n\n    /**\n     * @notice\n     * withdrawStake takes in an amount and a index of the stake and will remove tokens from that stake\n     * Notice index of the stake is the users stake counter, starting at 0 for the first stake\n     * Will return the amount to MINT onto the account\n     * Will also calculateStakeReward and reset timer\n     */\n    function _withdrawStake(uint256 amount, uint256 index)\n        internal\n        returns (uint256)\n    {\n        // Grab user_index which is the index to use to grab the Stake[]\n        uint256 user_index = stakes[msg.sender];\n        Stake memory current_stake = stakeholders[user_index].address_stakes[\n            index\n        ];\n        require(\n            current_stake.amount >= amount,\n            \"Staking: Cannot withdraw more than you have staked.\"\n        );\n\n        // Calculate available reward first before we start modifying data\n        uint256 reward = calculateStakeReward(current_stake);\n\n        // Remove by subtracting the money unstaked\n        current_stake.amount = current_stake.amount - amount;\n\n        // If the stake is empty, 0, then remove it from the array of stakes\n        if (current_stake.amount == 0) {\n            delete stakeholders[user_index].address_stakes[index];\n        } else {\n            // If not empty then replace the value of it\n            stakeholders[user_index]\n                .address_stakes[index]\n                .amount = current_stake.amount;\n\n            // Reset timer of stake\n            stakeholders[user_index].address_stakes[index].since = block\n                .timestamp;\n        }\n\n        return amount + reward;\n    }\n\n    /**\n     * @notice\n     * calculateStakeReward is used to calculate how much a user should be rewarded for their stakes\n     * and the duration the stake has been active\n     */\n    function calculateStakeReward(Stake memory _current_stake)\n        internal\n        view\n        returns (uint256)\n    {\n        // First calculate how long the stake has been active\n        // Use current seconds since epoch - the seconds since epoch the stake was made\n        // The output will be duration in SECONDS\n        // We will reward the user 0.1% per Hour so thats 0.1% per 3600 seconds\n        // the alghoritm is seconds = block.timestamp - stake seconds\n        // hours = seconds / 3600\n        // we then multiply each token by the hours staked, then divide by the reward per hour rate\n\n        return\n            (((block.timestamp - _current_stake.since) / 1 hours) *\n                _current_stake.amount) / rewardPerHour;\n    }\n\n    /**\n     * @notice\n     * hasStake is used to check if a account has stakes and the total amount along with all the seperate stakes\n     */\n    function hasStake(address _staker)\n        public\n        view\n        returns (StakingSummary memory)\n    {\n        // totalStakeAmount is used to count total staked amount of the address\n        uint256 totalStakeAmount = 0;\n\n        // Keep a summary in memory since we need to calculate this\n        StakingSummary memory summary = StakingSummary(\n            0,\n            stakeholders[stakes[_staker]].address_stakes\n        );\n\n        // Iterate all stakes and grab amount of stakes\n        for (uint256 s = 0; s < summary.stakes.length; s += 1) {\n            uint256 availableReward = calculateStakeReward(summary.stakes[s]);\n            summary.stakes[s].claimable = availableReward;\n            totalStakeAmount += summary.stakes[s].amount;\n        }\n\n        // Assign calculated amount to summary\n        summary.total_amount = totalStakeAmount;\n        return summary;\n    }\n}\n",
  "sourcePath": "/Users/mayckonbarbosadasilva/Desktop/desktop/mayckon/solidity/BEP20-app/contracts/Stakable.sol",
  "compiler": {
    "name": "solc",
    "version": "0.8.4+commit.c7e474f2.Emscripten.clang"
  },
  "schemaVersion": "3.4.4",
  "updatedAt": "2022-03-07T22:39:21.668Z",
  "devdoc": {
    "kind": "dev",
    "methods": {},
    "version": 1
  },
  "userdoc": {
    "events": {
      "Staked(address,uint256,uint256,uint256)": {
        "notice": "Staked event is triggered whenever a user stakes tokens, address is indexed to make it filterable"
      }
    },
    "kind": "user",
    "methods": {
      "hasStake(address)": {
        "notice": "hasStake is used to check if a account has stakes and the total amount along with all the seperate stakes"
      }
    },
    "version": 1
  }
}